:100000000C9434000C940A040C942E040C945204A6
:100010000C9451000C9451000C9451000C9451001C
:100020000C9451000C9451000C9451000C9451000C
:100030000C9451000C9451000C9451000C945100FC
:100040000C94AB030C9451000C94D8030C94510005
:100050000C9451000C9451000C9451000C945100DC
:100060000C9451000C94510011241FBECFEFD8E026
:10007000DEBFCDBF11E0A0E0B1E0EAE6FEE002C0E5
:1000800005900D92AE30B107D9F721E0AEE0B1E0B6
:1000900001C01D92A134B207E1F70E9407050C943C
:1000A00033070C940000ECE7F0E01082808180645C
:1000B0008083808181608083EAE7F0E080818F68BF
:1000C00080830895EAE7F0E080818064808308956A
:1000D00080917A0086FDFCCF809178009091790024
:1000E0000895833030F5683020F521E030E001C01C
:1000F000220F6A95EAF7813061F08230A1F084B175
:100100004130510519F4282B24B90895209528234E
:10011000FBCF87B14130510519F4282B27B9089539
:1001200020952823FBCF8AB14130510519F4282BA3
:100130002AB9089520952823FBCF833008F04EC0BC
:10014000683008F04BC08130D9F0823091F184B131
:1001500090E0062E02C0959587950A94E2F780FFFD
:100160003DC081E090E001C0880F6A95EAF795B143
:10017000413019F4892B85B9089580958923FBCFE7
:1001800087B190E0062E02C0959587950A94E2F714
:1001900080FF24C081E090E001C0880F6A95EAF7F3
:1001A00098B1413019F4892B88B908958095892335
:1001B000FBCF8AB190E0062E02C0959587950A94F0
:1001C000E2F780FF0BC081E090E001C0880F6A95E4
:1001D000EAF79BB1413019F4892B8BB908958095CA
:1001E0008923FBCF833098F4683088F4813059F04C
:1001F000823059F083B190E002C0959587956A9559
:10020000E2F78170089586B1F6CF89B1F4CF80E02E
:1002100008958330A8F4813041F0823061F06F3F5F
:1002200011F464B9089514B808956F3F11F467B9D3
:10023000089517B808956F3F11F46AB908951AB870
:100240000895833000F5813059F0823099F084B1FF
:100250008823C9F06F3F11F465B9089515B8089562
:1002600087B1882381F0613019F48FEF88B9089540
:1002700018B808958AB1882331F0613019F48FEFEE
:100280008BB908951BB80895833078F4813049F014
:10029000823049F093B181E09F3F09F080E0819581
:1002A000089596B1F8CF99B1F6CF8FEF0895CF9317
:1002B000DF938091120188B9809110019091110112
:1002C000C4EBD0E0BE010E94160565E00E940A055D
:1002D000682F70E090E080E00E943A0620E030E075
:1002E00044E353E40E94970520E030E048E851E4FD
:1002F0000E94C60620E030E048E751E40E942B054A
:100300000E94090670938900609388006091120131
:1003100070E090E080E00E943A0620E030E040E2A9
:1003200051E40E94970520E030E04FE753E40E943B
:10033000C6060E9409066093B30080911001909157
:100340001101BE010E941605892B09F4459A80917E
:1003500000018F5F80930001DF91CF910895CF93CB
:10036000DF93C2E1D1E0898188B980911001909139
:10037000110164EB70E00E94160586958695682F42
:1003800070E090E080E00E943A0620E030E044E334
:1003900053E40E94970520E030E048E851E40E94D1
:1003A000C60620E030E048E751E40E942B050E9499
:1003B00009067093890060938800698170E090E07D
:1003C00080E00E943A0620E030E040E251E40E94E2
:1003D000970520E030E04FE753E40E94C6060E94F4
:1003E00009066093B300809100018F5F8093000144
:1003F000DF91CF910895CF93C0911401C8B9809136
:1004000010019091110164EB70E00E9416056BEAF7
:10041000869F812D11248695682F70E090E080E002
:100420000E943A0620E030E044E353E40E9497053E
:1004300020E030E048E851E40E94C60620E030E0C9
:1004400048E751E40E942B050E9409067093890039
:10045000609388006C2F70E090E080E00E943A0684
:1004600020E030E040E251E40E94970520E030E0D7
:100470004FE753E40E94C6060E9409066093B3004A
:10048000809100018F5F80930001CF910895CF93F9
:10049000C0911501C8B9809110019091110164EBD0
:1004A00070E00E9416058695682F70E090E080E06D
:1004B0000E943A0620E030E044E353E40E949705AE
:1004C00020E030E048E851E40E94C60620E030E039
:1004D00048E751E40E942B050E94090670938900A9
:1004E000609388006C2F70E090E080E00E943A06F4
:1004F00020E030E040E251E40E94970520E030E047
:100500004FE753E40E94C6060E9409066093B300B9
:10051000809100018F5F80930001CF910895CF9368
:10052000C0911601C8B9809110019091110164EB3E
:1005300070E00E941605BC01990F880B990B0E9470
:100540003A0620E030E044E353E40E94970520E0BF
:1005500030E048E851E40E94C60620E030E048E779
:1005600051E40E942B050E94090670938900609354
:1005700088006C2F70E090E080E00E943A0620E056
:1005800030E040E251E40E94970520E030E04FE780
:1005900053E40E94C6060E9409066093B30080914E
:1005A00000018F5F80930001CF9108958FE088B99B
:1005B0000E94AD040E94B3040C94C004E2E1F1E097
:1005C0002AE030E0B9010E9416058193CB0141E099
:1005D000E731F407B9F708950E94C9048FEF87B98E
:1005E00084B98FE085B988B98FB780688FBF15B897
:1005F000E9E6F0E080818260808380818160808391
:10060000E89A808188608083808184608083E99A11
:100610002898E8E6F0E0808181608083EBE6F0E0F6
:100620008081816080838FB780688FBF0895A1E04B
:10063000B1E0E7E1F1E090E080E02D913D91318380
:100640002083958384831682138212823796CD96F7
:100650008E3621E0920789F708951F93CF93DF9399
:10066000C7E1D1E012E08E81823069F08A819B81FE
:100670002C813D818217930778F0E881F9810995F3
:100680001B821A821E83279681E0C134D80759F74E
:10069000DF91CF911F91089501969B838A83F3CFB9
:1006A000E09100018E2F90E0019620910E01309193
:1006B0000F0147E0E49FF0011124E95EFE4F3796F9
:1006C000863091050CF00895358324830196235CD0
:1006D0003F4FF5CF809100018823B1F0EFEFE80F95
:1006E0004E2F50E090910E0160910F0127E0E29FA4
:1006F000F0011124E95EFE4F292F362F46305105B7
:1007000024F08250809300010895358324839283DE
:10071000638316824F5F5F4F235C3F4F3796EECF68
:10072000CF93DF93EC010E94DE020E9417030E9428
:1007300079040E9483040E94A604D0931101C093FF
:10074000100110920F0110920E018FEF80930001A3
:10075000DF91CF9108951F920F920FB60F9211243F
:100760002F933F934F935F936F937F938F939F93B9
:10077000AF93BF93EF93FF930E942D0380910E01DF
:1007800090910F01019690930F0180930E01FF91BC
:10079000EF91BF91AF919F918F917F916F915F91F9
:1007A0004F913F912F910F900FBE0F901F90189572
:1007B0001F920F920FB60F9211242F933F934F93D6
:1007C0005F936F937F938F939F93AF93BF93EF93B9
:1007D000FF932091C6008091C00087FFFCCF9091CD
:1007E000C600892F90E0982F8827820F911D0E94C4
:1007F0009003FF91EF91BF91AF919F918F917F9166
:100800006F915F914F913F912F910F900FBE0F907D
:100810001F9018951F920F920FB60F9211242F93CD
:100820003F934F935F936F937F938F939F93AF9378
:10083000BF93EF93FF930E946A03FF91EF91BF91E3
:10084000AF919F918F917F916F915F914F913F9168
:100850002F910F900FBE0F901F9018951F920F921F
:100860000FB60F9211242F933F934F935F936F9383
:100870007F938F939F93AF93BF93EF93FF930E94C8
:100880005003FF91EF91BF91AF919F918F917F9115
:100890006F915F914F913F912F910F900FBE0F90ED
:1008A0001F9018951F920F920FB60F9211242F933D
:1008B0003F934F935F936F937F938F939F93AF93E8
:1008C000BF93EF93FF930E94D60281E00E94F2044F
:1008D000FF91EF91BF91AF919F918F917F916F9118
:1008E0005F914F913F912F910F900FBE0F901F90EE
:1008F000189514BC85B5856085BDEEE6F0E0808175
:10090000816080830895E0E8F0E0808182608083E8
:10091000808180688083E1E8F0E080818860808366
:100920008081806180838081846080838081816018
:10093000808387E391E090938700809386008FE027
:1009400090E09093890080938800089587E08093D9
:10095000B10083E88093B000089514BC15BC16BCA8
:1009600010926E000895109280001092B1001092C3
:1009700085001092840010928700109286000895DE
:100980001092B0001092B1001092B200109270005C
:10099000089587E68093C400E2ECF0E080818F7BCD
:1009A000808380818F778083A1ECB0E08C91886018
:1009B0008C938C9180618C93808182608083808114
:1009C0008460808380818D7F808380818F7E80831F
:1009D00080818F7E80838081877F80838C918068F7
:1009E0008C9308959091C00095FFFCCF8093C60032
:1009F00008958091C00087FFFCCF8091C6000895C4
:100A00001092C4001092C2001092C10008950E947A
:100A1000EC02FFCF991B79E004C0991F961708F0EC
:100A2000961B881F7A95C9F780950895AA1BBB1B52
:100A300051E107C0AA1FBB1FA617B70710F0A61BDE
:100A4000B70B881F991F5A95A9F780959095BC01FF
:100A5000CD0108955058BB27AA270E9442050C9447
:100A60008C060E947E0638F00E94850620F039F43C
:100A70009F3F19F426F40C947B060EF4E095E7FBF7
:100A80000C947506E92F0E949D0658F3BA17620769
:100A900073078407950720F079F4A6F50C94BF0638
:100AA0000EF4E0950B2EBA2FA02D0B01B901900189
:100AB0000C01CA01A0011124FF27591B99F0593FCD
:100AC00050F4503E68F11A16F040A22F232F342F15
:100AD0004427585FF3CF469537952795A795F04063
:100AE0005395C9F77EF41F16BA0B620B730B840B78
:100AF000BAF09150A1F0FF0FBB1F661F771F881F30
:100B0000C2F70EC0BA0F621F731F841F48F4879587
:100B100077956795B795F7959E3F08F0B0CF939579
:100B2000880F08F09927EE0F9795879508950E94F2
:100B3000AB050C948C060E94850658F00E947E0638
:100B400040F029F45F3F29F00C94750651110C9484
:100B5000C0060C947B060E949D0668F39923B1F3AE
:100B6000552391F3951B550BBB27AA2762177307D3
:100B7000840738F09F5F5F4F220F331F441FAA1F67
:100B8000A9F335D00E2E3AF0E0E832D09150504023
:100B9000E695001CCAF72BD0FE2F29D0660F771FD1
:100BA000881FBB1F261737074807AB07B0E809F0B7
:100BB000BB0B802DBF01FF2793585F4F3AF09E3F3C
:100BC000510578F00C9475060C94C0065F3FE4F371
:100BD000983ED4F3869577956795B795F7959F5F7F
:100BE000C9F7880F911D9695879597F90895E1E0CB
:100BF000660F771F881FBB1F621773078407BA072A
:100C000020F0621B730B840BBA0BEE1F88F7E09584
:100C100008950E94A50688F09F5798F0B92F99274C
:100C2000B751B0F0E1F0660F771F881F991F1AF0D7
:100C3000BA95C9F714C0B13091F00E94BF06B1E077
:100C400008950C94BF06672F782F8827B85F39F076
:100C5000B93FCCF3869577956795B395D9F73EF470
:100C600090958095709561957F4F8F4F9F4F089518
:100C7000E89409C097FB3EF4909580957095619536
:100C80007F4F8F4F9F4F9923A9F0F92F96E9BB27EC
:100C90009395F695879577956795B795F111F8CF68
:100CA000FAF4BB0F11F460FF1BC06F5F7F4F8F4FD3
:100CB0009F4F16C0882311F096E911C0772321F0C9
:100CC0009EE8872F762F05C0662371F096E8862F61
:100CD00070E060E02AF09A95660F771F881FDAF7B8
:100CE000880F9695879597F9089597F99F6780E8FB
:100CF00070E060E008959FEF80EC089500240A946E
:100D00001616170618060906089500240A941216E6
:100D10001306140605060895092E0394000C11F419
:100D2000882352F0BB0F40F4BF2B11F460FF04C0C6
:100D30006F5F7F4F8F4F9F4F089557FD9058440F1F
:100D4000551F59F05F3F71F04795880F97FB991F2A
:100D500061F09F3F79F087950895121613061406E7
:100D6000551FF2CF4695F1DF08C016161706180674
:100D7000991FF1CF86957105610508940895E8944F
:100D8000BB2766277727CB0197F908950E94D906DC
:100D90000C948C060E947E0638F00E94850620F096
:100DA000952311F00C9475060C947B0611240C9479
:100DB000C0060E949D0670F3959FC1F3950F50E009
:100DC000551F629FF001729FBB27F00DB11D639FFD
:100DD000AA27F00DB11DAA1F649F6627B00DA11DA3
:100DE000661F829F2227B00DA11D621F739FB00D49
:100DF000A11D621F839FA00D611D221F749F3327B9
:100E0000A00D611D231F849F600D211D822F762F51
:100E10006A2F11249F5750409AF0F1F088234AF02E
:100E2000EE0FFF1FBB1F661F771F881F915050409A
:100E3000A9F79E3F510580F00C9475060C94C006EE
:100E40005F3FE4F3983ED4F3869577956795B79521
:100E5000F795E7959F5FC1F7FE2B880F911D96953B
:0A0E6000879597F90895F894FFCFE5
:0E0E6A00FF5701AF01FB0147028F02D60200C5
:00000001FF
