:100000000C9434000C9446000C9446000C9446006A
:100010000C9446000C9446000C9446000C94460048
:100020000C9446000C9446000C9446000C94460038
:100030000C9446000C9446000C9446000C94460028
:100040000C94D9010C9446000C94FD010C944600CC
:100050000C9446000C9446000C9446000C94460008
:100060000C9446000C94460011241FBECFEFD8E03C
:10007000DEBFCDBF21E0A0E0B1E001C01D92AE31F6
:10008000B207E1F70E9498020C94A0020C940000C1
:10009000ACE7B0E01C92EAE7F0E080818168808301
:1000A0008C9180648C938C9185608C938081876027
:1000B00080838081806880830895EAE7F0E0808112
:1000C00080648083089580917A0086FDFCCF8091C2
:1000D0007800909179000895833030F5683020F5EC
:1000E00021E030E001C0220F6A95EAF7813061F02B
:1000F0008230A1F084B14130510519F4282B24B984
:10010000089520952823FBCF87B14130510519F47C
:10011000282B27B9089520952823FBCF8AB1413099
:10012000510519F4282B2AB9089520952823FBCFCF
:10013000833008F04EC0683008F04BC08130D9F0F1
:10014000823091F184B190E0062E02C0959587959A
:100150000A94E2F780FF3DC081E090E001C0880F83
:100160006A95EAF795B1413019F4892B85B908955C
:1001700080958923FBCF87B190E0062E02C095952C
:1001800087950A94E2F780FF24C081E090E001C0E7
:10019000880F6A95EAF798B1413019F4892B88B92C
:1001A000089580958923FBCF8AB190E0062E02C086
:1001B000959587950A94E2F780FF0BC081E090E067
:1001C00001C0880F6A95EAF79BB1413019F4892B79
:1001D0008BB9089580958923FBCF833098F46830DC
:1001E00088F4813059F0823059F083B190E002C038
:1001F000959587956A95E2F78170089586B1F6CF57
:1002000089B1F4CF80E008958330A8F4813041F0C3
:10021000823061F06F3F11F464B9089514B8089505
:100220006F3F11F467B9089517B808956F3F11F43F
:100230006AB908951AB80895833000F5813059F0ED
:10024000823099F084B18823C9F06F3F11F465B909
:10025000089515B8089587B1882381F0613019F4A5
:100260008FEF88B9089518B808958AB1882331F0BE
:10027000613019F48FEF8BB908951BB8089583305E
:1002800078F4813049F0823049F093B181E09F3FAA
:1002900009F080E08195089596B1F8CF99B1F6CF35
:1002A0008FEF0895419A0895409A0E945D000E9440
:1002B000630090930101809300010895CF93C09152
:1002C0000101809100010E948A028C2F0E948A0203
:1002D000429ACF9108950E944D02429841984098C9
:1002E00008950E9448000E9461023D983C9A3B9A02
:1002F0003A9A399A389A8FEF84B98FB780688FBF4E
:100300000895E2E0F1E084E591E091838083158235
:10031000148216821382128282E591E0908787838D
:100320008DE390E0948783871586128611868EE58B
:1003300091E0978786878AE790E0938B828B148A77
:10034000118A108A8BE691E0968B858B87EB90E083
:10035000928F818F138E108E178A08951F93CF93DB
:10036000DF93C2E0D1E012E08E81823069F08A81B1
:100370009B812C813D818217930778F01B821A8222
:10038000E881F98109951E83279681E0CE31D8074F
:1003900059F7DF91CF911F91089501969B838A832E
:1003A000F3CF0E949B020E946B010E9481010C947A
:1003B00023021F920F920FB60F9211242F933F9397
:1003C0004F935F936F937F938F939F93AF93BF935D
:1003D000EF93FF930E94AE01FF91EF91BF91AF9118
:1003E0009F918F917F916F915F914F913F912F914D
:1003F0000F900FBE0F901F9018951F920F920FB67F
:100400000F9211242F933F934F935F936F937F939A
:100410008F939F93AF93BF93EF93FF938091C60009
:100420000E94D301FF91EF91BF91AF919F918F9166
:100430007F916F915F914F913F912F910F900FBEE0
:100440000F901F90189585B5856085BDEEE6F0E0AC
:100450008081816080830895E0E8F0E0808182609F
:100460008083808180688083E1E8F0E0808188601B
:10047000808380818061808380818160808386E940
:1004800090E0909387008093860088E290E09093BC
:100490008900809388000895089514BC15BC16BC8B
:1004A00010926E000895109280001092B100109288
:1004B00085001092840010928700109286000895A3
:1004C000089587E68093C400E2ECF0E080818F7BA2
:1004D000808380818F778083A1ECB0E08C918860ED
:1004E0008C938C9180618C938081826080838081E9
:1004F0008460808380818D7F808380818F7E8083F4
:1005000080818F7E80838081877F80838C918068CB
:100510008C9308959091C00095FFFCCF8093C60006
:1005200008958091C00087FFFCCF8091C600089598
:100530000E947101FFCF81E090E0F8940C94A0023A
:04054000F894FFCF5D
:00000001FF
